:100000000C9450010C9481010C9481010C94810199
:100010000C9481010C9481010C9481010C94810158
:100020000C9481010C9481010C9481010C94810148
:100030000C9481010C9481010C9481010C94810138
:100040000C9481010C9481010C9481010C94810128
:100050000C9481010C9481010C9481010C94111376
:100060000C9481010C9485130C945B130C94810106
:100070000C9481010C9481010C9481010C948101F8
:100080000C9481010C9481010C9481010C948101E8
:100090000C9481010C9481010C9481010C948101D8
:1000A0000C9481010C9481010C9481010C948101C8
:1000B0000C9481010C9481010C9481010C948101B8
:1000C0000C9481010C9481010C9481010C948101A8
:1000D0000C9481010C9481010C9481010C94810198
:1000E0000C9481010C94CA010C9425020C946102B9
:1000F0000C9483020C94FB010C94BB130C94CE0162
:100100000C94BB020C94DB010C941B020C94F301C5
:100110000C9417020C94E5010C94DF010C94D501AA
:100120000C9452020C94D2010C9401020C947502AE
:100130000C9405020C9408030C94C6010C94AF01B6
:100140000C94ED010C94E9010C94F7010C94B401AA
:10015000CDCCCC3D0AD7233C17B7D13877CC2B3246
:100160009595E6241FB14F0A0000803FCDCCCC3DD1
:100170006F12833A95BFD6337D1D9026B3CE010C06
:10018000000020410000C84200401C4620BCBE4C7C
:10019000CA1B0E5AAEC59D74000021002400270022
:1001A0002A002D0030003300010100000401070186
:1001B0000A0100002200250028002B002E0031003B
:1001C000340002010000050108010B0105050505C9
:1001D000070508080808020202020A0A08080404BF
:1001E00004040101010101010101030303030303ED
:1001F0000303040707070C0C0C0C0C0C0C0C02027C
:10020000020206060606060606060B0B0B0B0B0B78
:100210000B0B010210202008081020401020408005
:1002200002010201080402010102040810204080BA
:100230008040201008040201800402018040201048
:100240000804020108040201010204081020408091
:10025000010204081020408000000A0B02090C0D66
:100260000E08070304010000000000000000000069
:10027000000000000000000000000000000000007E
:10028000000000001211100000000000000000003B
:100290000000000000000000000000000000BB1390
:1002A00011241FBECFEFD1E2DEBFCDBF00E00CBFF7
:1002B00023E0A6ECB2E001C01D92AA39B207E1F733
:1002C00012E0A0E0B2E0E8EEF2E300E00BBF02C013
:1002D00007900D92A63CB107D9F711E0C0E5D1E037
:1002E00000E006C021970109802FFE010E94A3169D
:1002F000CF34D10780E00807A9F70E9415140C94A9
:1003000072190C940000382FE5E6F2E08491EFE1D9
:10031000F2E02491E9EDF1E09491992309F435C0DC
:10032000882311F181508231F8F4E82FF0E088271A
:10033000E356FE4F8F4F0C94A316CE01D201AF01AE
:10034000C601CA01B401D501DB01DF01E501E90104
:10035000ED01F301F701B401FB01010205028091F7
:1003600080008F7780938000E92FF0E0EE0FFF1F71
:10037000EE54FE4FA591B4918FB7F894EC913111E2
:1003800048C020952E232C938FBF08958091800024
:100390008F7DE8CF80918000877FE4CF84B58F7711
:1003A00084BDE2CF84B58F7DFBCF8091B0008F7785
:1003B0008093B000D9CF8091B0008F7DF9CF80912C
:1003C00090008F7780939000CFCF809190008F7DA9
:1003D000F9CF80919000877FF5CF8091A0008F7733
:1003E0008093A000C1CF8091A0008F7DF9CF809134
:1003F000A000877FF5CF809120018F778093200127
:10040000B3CF809120018F7DF9CF80912001877F2C
:10041000F5CF2E2BB8CF2FB7F8946091CF02709103
:10042000D0028091D1029091D2022FBF089581E035
:100430008093C802089580E00E94830110927A039D
:100440001092C7021092C6020895AF92BF92CF9247
:10045000DF92EF92FF920F931F93CF93DF936C0184
:100460007B018B01040F151FEB015E01AE18BF0865
:10047000C017D10759F06991D601ED91FC91019017
:10048000F081E02DC6011995892B79F7C501DF911F
:10049000CF911F910F91FF90EF90DF90CF90BF9081
:1004A000AF900895FC01538D448D252F30E0842FAB
:1004B00090E0821B930B541710F0CF96089501978C
:1004C0000895FC01918D828D981761F0A28DAE0F79
:1004D000BF2FB11D5D968C91928D9F5F9F73928F00
:1004E00090E008958FEF9FEF0895FC01918D828D2C
:1004F000981731F0828DE80FF11D858D90E00895F9
:100500008FEF9FEF0895FC01918D228D892F90E050
:10051000805C9F4F821B91098F739927089583ED0B
:1005200092E00E94830221E0892B09F420E0822FCF
:100530000895FC01A48DA80FB92FB11DA35ABF4F78
:100540002C91848D90E001968F739927848FA689D2
:10055000B7892C93A089B1898C91837080648C9326
:10056000938D848D981306C00288F389E02D8081D5
:100570008F7D80830895EF92FF920F931F93CF9307
:10058000DF93EC0181E0888F9B8D8C8D98131AC0CE
:10059000E889F989808185FF15C09FB7F894EE89B5
:1005A000FF896083E889F989808183708064808312
:1005B0009FBF81E090E0DF91CF911F910F91FF905D
:1005C000EF900895F62E0B8D10E00F5F1F4F0F7305
:1005D0001127E02E8C8D8E110CC00FB607FCFACFC0
:1005E000E889F989808185FFF5CFCE010E949902C3
:1005F000F1CFEB8DEC0FFD2FF11DE35AFF4FF08291
:100600009FB7F8940B8FEA89FB8980818062CFCFF6
:10061000CF93DF93EC01888D8823B9F0AA89BB8939
:10062000E889F9898C9185FD03C0808186FD0DC024
:100630000FB607FCF7CF8C9185FFF2CF808185FF45
:10064000EDCFCE010E949902E9CFDF91CF910895BD
:1006500081E08093C90208950E948F02882319F0D7
:1006600081E08093C90280E090E0892B49F080E02E
:1006700090E0892B29F00E94000081110E94000067
:1006800080E090E0892B49F080E090E0892B29F010
:100690000E94000081110E94000080E090E0892B00
:1006A00049F080E090E0892B29F00E940000811140
:1006B0000C94000008950F931F93CF93DF93EC01E8
:1006C0000E940B020E811F812885398506171707A6
:1006D00028073907B8F58A858823A1F18B859C8581
:1006E000AD85BE85892B8A2B8B2B61F1E881F98141
:1006F00019958B859C85AD85BE85181619061A0639
:100700001B0684F48F859889A989BA890197A10964
:10071000B1098F87988BA98BBA8B892B8A2B8B2B4E
:1007200009F41A860E940B020A811B812C813D81EB
:10073000DC01CB01800F911FA21FB31F8E839F830B
:10074000A887B987DF91CF911F910F9108950895E0
:10075000CF93DF93EC0188819981DC01ED91FC91CD
:100760000190F081E02D19952A813B81820F931F22
:100770009B838A83DF91CF910895CF93DF93EC0120
:1007800088819981DC01ED91FC910280F381E02D5B
:1007900019952A813B81820F931F9B838A83DF9166
:1007A000CF9108958F929F92AF92BF92CF92DF9296
:1007B000EF92FF920F931F93CF93DF93CDB7DEB7E6
:1007C00066970FB6F894DEBF0FBECDBF6C018E01E9
:1007D000095E1F4F78018AE0882E912CA12CB12C44
:1007E000CB01BA01A50194010E948116942F852F97
:1007F000605DF80162938F01A901692F782F41157F
:1008000051056105710561F7A7014E1B5F0BBF0123
:10081000C6010E94BD0366960FB6F894DEBF0FBEF8
:10082000CDBFDF91CF911F910F91FF90EF90DF909F
:10083000CF90BF90AF909F908F9008952F923F924E
:100840004F925F926F927F928F929F92AF92BF92E0
:10085000CF92DF92EF92FF920F931F93CF93DF938C
:1008600000D000D0CDB7DEB71C014A015B0186E0A5
:10087000D1011A968C9320E836E948E15BE4CB017C
:10088000B4010E944E1787FD7DC004E110E060E2D4
:10089000462E512C1E821D82F801E058FE4F2591F4
:1008A000359145915491C501B4010E944E1787FDC1
:1008B00013C0F801E05BFE4F2591359145915491AD
:1008C000C501B4010E9495154B015C01ED81FE81CB
:1008D000E40DF51DFE83ED835594479404501109F2
:1008E0000C3FFFEF1F07C1F677247A9420E030E039
:1008F000A901C501B4010E944E1718160CF04AC098
:100900002CEA35EC47E257E3C501B4010E942F15EC
:1009100018160CF43FC0272D34E023028001112467
:10092000F12CE12CC80188599E4F6C0100581E4FD4
:100930009FEF791679F1F601EE0DFF1D25913591A6
:1009400045915491C501B4010E942F1587FF13C032
:10095000F801EE0DFF1D2591359145915491C5018A
:10096000B4010E9495154B015C01AD81BE81A419B3
:10097000B509BE83AD83559447947A94B4E0EB1ADD
:10098000F108D6CF30E2432E512C45E0742E1E8262
:100990001D82ACCF2D813E81F10131872087C501B9
:1009A000B4010E941F1769837A838B839C83D101D2
:1009B0006D937D938D939C9313972B013C0190E451
:1009C000C92E92E4D92E9FE0E92EF12CBAE04B1605
:1009D000510461047104C8F0C701B6012AE030E097
:1009E00040E050E00E94811669017A01F1018285A0
:1009F00081508287C301B2012AE030E040E050E03C
:100A00000E94811629013A01E1CF69817A818B81A7
:100A10009C810E9434159B01AC01C501B4010E9468
:100A2000AB164B015C01C701B6010E9434159B0156
:100A3000AC01C501B4010E9495152B013C010E9437
:100A40001F174B015C010E9434159B01AC01C301CF
:100A5000B2010E94AB169B01AC010E94AC160E9431
:100A60001F17860E971EA81EB91E8C149D04AE0477
:100A7000BF0430F5D10114968D929D92AD92BC9237
:100A800017978AE0C82ED12CE12CF12CD1011496B5
:100A90006D917D918D919C911797A70196010E9470
:100AA0008116672B682B692B89F5F1018285181651
:100AB0006CF5248335834683578381508287E6CF44
:100AC000F101148215821682178289819A81AB8185
:100AD000BC810196A11DB11D80839183A283B38344
:100AE0002D813E812115310561F20A97A105B105DD
:100AF00040F2C90101969187808781E090E0A0E0F3
:100B0000B0E080839183A283B383BBCF26960FB6D8
:100B1000F894DEBF0FBECDBFDF91CF911F910F9133
:100B2000FF90EF90DF90CF90BF90AF909F908F900D
:100B30007F906F905F904F903F902F9008958033FB
:100B40009CF08A3324F08F3524F08B3724F481E035
:100B5000089581344CF08B35D4F393ED980F81E0F8
:100B60009230B0F380E008958B32B9F7F0CFCF9296
:100B7000DF92EF92FF920F931F93CF93DF93EC01DD
:100B80008C85811130C009851A850E940B02D8011D
:100B900018966D937D938D939C931B97D801ED913F
:100BA000FC910284F385E02DC801199597FF25C0BB
:100BB0000E940B02F801C084D184E284F3846C1992
:100BC0007D098E099F09C480D580E680F7806C1569
:100BD0007D058E059F0510F38FEF9FEF97FD80E059
:100BE0008B8781E08C878B85DF91CF911F910F914F
:100BF000FF90EF90DF90CF9008959927EFCF1F934C
:100C0000CF93DF93EC01162F0E94B705811306C026
:100C10001C8681E0DF91CF911F91089580E0FACF8B
:100C2000CF93DF93EC01CE010E94B7058B303CF4EB
:100C300089304CF4882349F081E0888710C08D30DA
:100C400011F08032C9F71C86EECF888581110AC069
:100C500081E090E0C15BDF4F9983888380E0DF9182
:100C6000CF91089582E090E0F5CF0895FC012481B2
:100C70003581A9014F5F5F4F8681978148175907DA
:100C800048F48281938155834483FC01E20FF31F72
:100C9000608308950190F081E02D81E080870895C0
:100CA0009F92AF92BF92CF92DF92EF92FF920F93FB
:100CB0001F93CF93DF9300D01F921F92CDB7DEB763
:100CC0008C010E94B705D82ED8011C961C92F12CDD
:100CD000E12C60EFC62EC8010E94B705F80114860A
:100CE000D81609F4BDC0811119C0F801E15BFF4FAE
:100CF00082E090E09183808380E00F900F900F90CE
:100D00000F900F90DF91CF911F910F91FF90EF9077
:100D1000DF90CF90BF90AF909F9008958C3509F0F1
:100D20009DC0C8010E94B7058823F9F2E4E2F2E011
:100D3000853709F087C0D8011C961C9254E0952E87
:100D4000B12CA12CC8010E94B705882371F281340F
:100D50004CF48053803148F0F801E15BFF4F83E0B1
:100D600090E0C8CF8F7D8753F5CF44E0AA0CBB1C21
:100D70004A95E1F7A82AF80114869A949110E2CFD7
:100D8000C501985D8115944020F4750123E0F2229D
:100D9000A2CFC5019C5D81159440A8F4B3E0BB22AD
:100DA000B701762F6627770F770F6A297B2990E0A6
:100DB00080E00196603871058105910540F4C80115
:100DC0000E94360688CFB50190E080E0F3CF19820B
:100DD000262F2F7320682A8326E09695879577958E
:100DE00067952A95D1F76032710580F4606C6B834A
:100DF0005E01E4E0AE0EB11CD5016E915D0166238B
:100E000009F469CFC8010E943606F6CF262F2F734A
:100E100020682B8386E0769567958A95E1F76031A7
:100E2000710538F4606E6C835E01F5E0AF0EB11CA5
:100E3000E3CF60686C83CD825E0126E0A20EB11C18
:100E4000DBCF32969081992309F486CF8913F9CFAD
:100E50008181882309F480CFF8011486682FAFCFF1
:100E60000190F081E02D8085882331F0F801E15B6D
:100E7000FF4F84E090E03ECF81E03FCF4F925F9202
:100E80006F927F928F929F92AF92BF92CF92DF929A
:100E9000EF92FF920F931F93CF93DF93EC018B019F
:100EA00088818B32C9F18D32C1F52196FF24F394EC
:100EB000888190ED980F9A3018F08E3209F04DC16C
:100EC00060E070E0CB01FE012191A0ED8A2E820E40
:100ED00039E0381520F16A3949E97407840749E196
:100EE000940738F5AAE0B0E09B01AC010E945316CC
:100EF000912CB12CA12C2401350140945094609484
:100F00007094461657066806790698F0680D791DA4
:100F10008A1D9B1DEF01D7CF2196F12CC9CF21113E
:100F200008C0FF20F1F161307105810550E8950797
:100F3000A0F0E12CEAE08E2E912CA12CB12C6115B1
:100F40007105F0E88F079105C0F1A50194010E9499
:100F50008116CA01B901E394F2CFF8012481207807
:100F60002A6024839B01AC0188279927DC01821B1E
:100F7000930BA40BB50B80839183A283B3838F2D36
:100F8000DF91CF911F910F91FF90EF90DF90CF9065
:100F9000BF90AF909F908F907F906F905F904F9099
:100FA0000895F80124812078286024836083718368
:100FB00082839383FF24F394E2CFFE01299130EDE5
:100FC000320F3A3010F4E394F8CF2E32F1F4EF01FF
:100FD0002196FE012196208150EDD52ED20E29E0DA
:100FE0002D1598F06C3C3CEC73073CE083079105B1
:100FF00080F7AAE0B0E09B01AC010E9453166D0D92
:10100000711D811D911DEA94E4CF20812F7DD0E0D8
:10101000C0E0253409F05DC021812D32D9F532962A
:10102000CC24C394DF01D0E0C0E02E2D0E2C000CA8
:10103000330B4AE0B42EFD01DD9040ED4D0D4A30FA
:1010400008F042C0BC9EA001BD9E500D1124CD2DC4
:10105000DD0CDD0BE097C40FD51FAE01420F531F0F
:101060004732510544F3F8018481CC20D1F040E0AF
:1010700050E060E070E8F11003C040E050E0BA01D9
:1010800080788C60F801848340835183628373830A
:10109000FC2C75CF2B3219F03196C12CC3CF329670
:1010A000FCCF40E050E060E87FEFF11004C040E08A
:1010B00050E060E87FE780788C60F80184834083AB
:1010C00051836283738376CFCC2019F0D195C1957B
:1010D000D1092081211141C0CE0DD11DE7FCDA9547
:1010E0000E9434151C161D0604F5E12CC0FF0CC02F
:1010F00024E0E29EF0011124E058FE4F2591359145
:10110000459154910E949515D595C795E3942097E4
:1011100069F7F1109058F801248120782C6024831D
:10112000608371838283938345CFD195C195D10923
:10113000E12C209771F3C0FF0CC044E0E49EF00165
:101140001124E05BFE4F25913591459154910E9409
:101150009515D595C795E394ECCFF12C10CFCF9290
:10116000DF92EF92FF92CF93DF9300D01F921F92F6
:10117000CDB7DEB7FC0184818F778630B9F028F4D3
:10118000843088F590E080E013C08A30E9F08C303C
:10119000B9F18830B9F780819181A281B38181153D
:1011A00020E89207A105B10568F702C0808190E0B0
:1011B0000F900F900F900F900F90DF91CF91FF90B5
:1011C000EF90DF90CF90089580819181A281B381CB
:1011D000AC01BD0150586F4F7F4F41155105614023
:1011E000710580F6E5CF808191811D82BE016F5F20
:1011F0007F4F0E943E07CE0101960E94AF08D8CFD4
:10120000C080D180E280F38020E030E040E057EC05
:10121000C701B6010E944E1787FDB4CF20E03EEF14
:101220004FEF56E4C701B6010E942F1518160CF4B3
:10123000A9CFC701B6010E941817CB01B9CFCF9330
:10124000DF93DC01EB01EC81FD818A819B810896B3
:10125000E817F90740F481E08887F0E0E0E0CF018B
:10126000DF91CF9108953897FD83EC833097B9F3E0
:101270001296CD91DC911397209791F0CF018C1BA2
:101280009D0B23E0959587952A95E1F78D8313961D
:10129000FC93EE9312971582148217821682DFCF89
:1012A0001196FC93EE93F3CFEF92FF920F931F935F
:1012B000CF93DF937C01DC0112962D913C91139723
:1012C000ED91FC91AB01420F531FEF01C60FD71FE9
:1012D000C217D307A0F4888181110BC0E901CF01A7
:1012E0004C175D0751F00991DC011D91CD010117EB
:1012F000B9F381918111FDCFE8CF309751F4620F9E
:10130000731FCB010196F70193838283DB011C924B
:10131000F901CF01DF91CF911F910F91FF90EF90D5
:101320000895FC012581222339F0F8E02F02900175
:101330001124820F931F089590E080E00895FC012E
:1013400001900020E9F73197AF01481B590BBC0110
:1013500083ED92E00C942502FB0101900020E9F757
:101360003197AF01461B570B0C94BD031F93CF93CE
:10137000DF93E4E2F2E01281112379F032962181C9
:101380006213F9CFEC016CE50E94A803612FCE0136
:10139000DF91CF911F910C94A8036111F9CF65E300
:1013A00072E0DF91CF911F910C94AC094F925F9244
:1013B0006F927F928F929F92AF92BF92CF92DF9265
:1013C000EF92FF920F931F93CF93DF93CDB7DEB7CA
:1013D000A1970FB6F894DEBF0FBECDBF7C018B0185
:1013E000FC0184818F77863009F45CC160F482301F
:1013F00098F0C280D380A080B180843008F023C1EF
:10140000A601B501CAC08C3051F148F4883009F406
:1014100044C18A3009F42AC16CE372E04AC18032C7
:1014200009F4DDC08034C1F76BE5C8010E94A80350
:10143000F701E080F180E114F10409F4B2C0B801D1
:10144000C7010E94D609C7010E9491097C01892B1E
:1014500009F4A7C06CE2C8010E94A803ECCF808009
:101460009180A280B380A5019401C501B4010E94BE
:101470002F158111D1CF20E030E0A901C501B401C1
:101480000E942F15882379F0A5019401C501B401AC
:101490000E94AC169B01AC01C501B4010E942F153E
:1014A000882309F4B9CF20E030E0A901C501B401D7
:1014B0000E942F1587FF08C06DE2C8010E94A80393
:1014C000B7FAB094B7F8B0946E01F7E1CF0ED11C23
:1014D000B501A401C6010E941E044F89588D698D73
:1014E0007A8DC8010E94D203F9A0FF2091F16B8D83
:1014F0007C8D8D8D9E8D4E0121E1820E911CEF2CF5
:1015000054012AE0422E512C612C712CEA94EFEF09
:10151000EE1659F0A30192010E948116605DF4015C
:1015200062934F01B901CA01F1CF8F2D90E0BC0148
:1015300060957095F501E81BF90B31978EE2808379
:1015400044275527461B570B6A0D7B1DC8010E9477
:10155000BD038F8D98A1892B41F165E6C8010E94DA
:10156000A803EF8CF8A0C701F7FE08C06DE2C80120
:101570000E94A803882799278E199F09F6012AE05F
:1015800030E0B9010E946D16805D8293CB01009717
:10159000C1F7A6014E1B5F0BBF01C8010E94BD032E
:1015A00004C06DE5C8010E94A803F80182819381FF
:1015B000A1960FB6F894DEBF0FBECDBFDF91CF91DD
:1015C0001F910F91FF90EF90DF90CF90BF90AF9061
:1015D0009F908F907F906F905F904F9008956BE7F2
:1015E000C8010E94A803F701E080F180E114F10432
:1015F00041F1F701A680B78062E2C8010E94A8030A
:101600006501F60161916F01662321F0C8010E9416
:10161000B609F7CF62E2C8010E94A8036AE3C801D5
:101620000E94A803B801C7010E94D609C7010E9401
:1016300091097C01892B29F06CE2C8010E94A80362
:10164000D5CF6DE7AFCF62E2C8010E94A803750154
:10165000CE0CDF1CCE14DF0439F0F70161917F015D
:10166000C8010E94B609F6CF62E29CCFC080D1804B
:10167000E280F380B701A601F7FE0BC06DE2C8015E
:101680000E94A80344275527BA014C195D096E0929
:101690007F09C8010E94D20388CF408151816281B5
:1016A0007381F7CF808161E472E0811102C066E44A
:1016B00072E0C8010E94AC0978CF0F931F93CF93BB
:1016C000DF93EC0188819981009759F02A813B8151
:1016D0002617370730F081E0DF91CF911F910F91EE
:1016E00008958B016F5F7F4F0E947818009759F023
:1016F000998388831B830A832C813D81232B59F78F
:10170000FC011082E8CF80E0E7CFEF92FF920F93C9
:101710001F93CF93DF93EC017B018A01BA010E94F2
:101720005D0B28813981811114C02115310519F013
:10173000C9010E94EF17198218821D821C821B8228
:101740001A82CE01DF91CF911F910F91FF90EF9000
:1017500008951D830C83B701C9010E946B19F1CF55
:10176000CF92DF92EF92FF920F931F93CF93DF936D
:101770008C01DC019296ED91FC91E80FF91F128229
:101780006C01B2E0CB0ED11CC114D10449F1F601B9
:1017900001900020E9F73197EC19FD09F1F0DC0127
:1017A000ED90FC90D7011496CD91DC91CE0FDF1F08
:1017B000BE01C7010E945D0B882391F0F7012081D3
:1017C000318184819581B601820F931F0E946B192C
:1017D000D7011596DC93CE931497F80113A212A2A9
:1017E000D80192968D919C91DF91CF911F910F918D
:1017F000FF90EF90DF90CF9008951F93CF93DF93EA
:10180000EC01162F8AA19BA101968097B8F48AA1BA
:101810009BA19C012F5F3F4F3BA32AA38C0F9D1FD1
:10182000FC01128321E030E08CA19DA1820F931F67
:101830009DA38CA3DF91CF911F910895CE010E94AB
:10184000B00B892B21F330E020E0EECFBF92CF9296
:10185000DF92EF92FF920F931F93CF93DF93EC01F0
:101860006A018B017B01E40EF51EE016F106D1F052
:10187000F801B1908F018AA19BA10196809760F435
:101880008AA19BA19C012F5F3F4F3BA32AA38C0FF2
:101890009D1FFC01B282E9CFCE010E94B00B892BC3
:1018A00079F3E3CF4CA15DA14C0D5D1D5DA34CA36D
:1018B000DF91CF911F910F91FF90EF90DF90CF902C
:1018C000BF9008958F929F92AF92BF92CF92DF9276
:1018D000EF92FF920F931F93CF93DF93CDB7DEB7B5
:1018E00066970FB6F894DEBF0FBECDBF6C018E01B8
:1018F000095E1F4F78018AE0882E912CA12CB12C13
:10190000CB01BA01A50194010E948116942F852F65
:10191000605DF80162938F01A901692F782F41154D
:1019200051056105710561F7A7014E1B5F0BBF01F2
:10193000C6010E94260C66960FB6F894DEBF0FBE55
:10194000CDBFDF91CF911F910F91FF90EF90DF906E
:10195000CF90BF90AF909F908F900895FB01019022
:101960000020E9F73197AF01461B570B0C94260C6A
:101970001F93CF93DF93E4E2F2E01281112379F019
:10198000329621816213F9CFEC016CE50E94FD0BC8
:10199000612FCE01DF91CF911F910C94FD0B61114E
:1019A000F9CF65E372E0DF91CF911F910C94AE0CFB
:1019B0004F925F926F927F928F929F92AF92BF925F
:1019C000CF92DF92EF92FF920F931F93CF93DF930B
:1019D000CDB7DEB7A1970FB6F894DEBF0FBECDBF6F
:1019E0007C018B01FC0184818F77863009F45CC116
:1019F00060F4823098F0C280D380A080B1808430BF
:101A000008F023C1A601B501CAC08C3051F148F4D9
:101A1000883009F444C18A3009F42AC16CE372E0C9
:101A20004AC1803209F4DDC08034C1F76BE5C801DA
:101A30000E94FD0BF701E080F180E114F10409F44C
:101A4000B2C0B801C7010E94D80CC7010E94910919
:101A50007C01892B09F4A7C06CE2C8010E94FD0B30
:101A6000ECCF80809180A280B380A5019401C50154
:101A7000B4010E942F158111D1CF20E030E0A901DF
:101A8000C501B4010E942F15882379F0A5019401A6
:101A9000C501B4010E94AC169B01AC01C501B401A3
:101AA0000E942F15882309F4B9CF20E030E0A90166
:101AB000C501B4010E942F1587FF08C06DE2C8015F
:101AC0000E94FD0BB7FAB094B7F8B0946E01F7E13D
:101AD000CF0ED11CB501A401C6010E941E044F897E
:101AE000588D698D7A8DC8010E94620CF9A0FF2083
:101AF00091F16B8D7C8D8D8D9E8D4E0121E1820E3D
:101B0000911CEF2C54012AE0422E512C612C712C97
:101B1000EA94EFEFEE1659F0A30192010E948116AC
:101B2000605DF40162934F01B901CA01F1CF8F2DBD
:101B300090E0BC0160957095F501E81BF90B3197B9
:101B40008EE2808344275527461B570B6A0D7B1D69
:101B5000C8010E94260C8F8D98A1892B41F165E662
:101B6000C8010E94FD0BEF8CF8A0C701F7FE08C06A
:101B70006DE2C8010E94FD0B882799278E199F09E5
:101B8000F6012AE030E0B9010E946D16805D829373
:101B9000CB010097C1F7A6014E1B5F0BBF01C80127
:101BA0000E94260C04C06DE5C8010E94FD0BF801DF
:101BB00084A195A1A1960FB6F894DEBF0FBECDBF4C
:101BC000DF91CF911F910F91FF90EF90DF90CF9019
:101BD000BF90AF909F908F907F906F905F904F904D
:101BE00008956BE7C8010E94FD0BF701E080F180CA
:101BF000E114F10441F1F701A680B78062E2C80167
:101C00000E94FD0B6501F60161916F01662321F0D1
:101C1000C8010E94B80CF7CF62E2C8010E94FD0B18
:101C20006AE3C8010E94FD0BB801C7010E94D80CED
:101C3000C7010E9491097C01892B29F06CE2C8013F
:101C40000E94FD0BD5CF6DE7AFCF62E2C8010E94C5
:101C5000FD0B7501CE0CDF1CCE14DF0439F0F7014B
:101C600061917F01C8010E94B80CF6CF62E29CCF5F
:101C7000C080D180E280F380B701A601F7FE0BC0DF
:101C80006DE2C8010E94FD0B44275527BA014C198B
:101C90005D096E097F09C8010E94620C88CF4081EE
:101CA000518162817381F7CF808161E472E081119B
:101CB00002C066E472E0C8010E94AE0C78CF0F93B8
:101CC0001F93CF93DF93D0E0C0E06115710591F0D1
:101CD0008B01FC01C081D181209761F06E817F81F1
:101CE000C8010E946219892B29F0CE010E94910936
:101CF000EC01F2CFCE01DF91CF911F910F910895AA
:101D00009F92AF92BF92CF92DF92EF92FF920F938A
:101D10001F93CF93DF93EC018B01E42E0E941006FA
:101D2000D82E81110EC0F12C8F2DDF91CF911F91F4
:101D30000F91FF90EF90DF90CF90BF90AF909F906A
:101D40000895CE010E94B705873209F42CC114F51D
:101D5000823209F428C1CE010E94B705E82E5E0147
:101D6000FFE0AF0EB11CF12C9A2CCB2C8E2D0E94D3
:101D70009F05882309F443C18FE3F81609F43FC196
:101D80001C86F394F501E1925F01CE010E94B70534
:101D9000E82EECCF8B3509F44AC08B37E1F6F80119
:101DA00084818078806284831182108213821282FF
:101DB000EE2009F447C01C86CE010E94100688233D
:101DC00009F4B1CF6DE7CE010E94FF05F82E811115
:101DD0004FC0CC24C394EA94E881F9818281938135
:101DE0009B838A838481958122813381821B930B1B
:101DF0009F838E831D821C82892B09F4C086CE01AD
:101E00000E94B705873209F460C0823209F45DC0D0
:101E1000CE010E94B705D82E0E949F058111AEC049
:101E2000C15BDF4F83E090E0998388837DCFF80129
:101E3000848180788064848311821082138212826C
:101E4000E11007C0C15BDF4F85E090E09983888394
:101E50006ACF1C86CE010E941006882309F463CF46
:101E60006DE5CE010E94FF05F82EEA94882311F05B
:101E7000FD2C5ACF6D857E85C8010E941F090097F1
:101E800029F4C15BDF4F84E090E0CECF4E2DBC0142
:101E9000CE010E94800E882309F445CFCE010E9416
:101EA0001006882309F43FCF6DE5CE010E94FF059F
:101EB0008111DECF6CE2CE010E94FF058111DACFE5
:101EC000C15BDF4F83E090E0C1CFCE010E9450069E
:101ED000882309F429CFCE010E941006882309F433
:101EE00023CF6AE3CE010E94FF05882309F498CF2F
:101EF000EA81FB818C819D81E80FF91F1082AC8003
:101F0000BD806A817B81C8010E945F0EBC01892B64
:101F1000A9F4B501888199810E9454095C016D85FD
:101F20007E85C8010E941F09FC01892B09F4A9CFF5
:101F3000848180688483B782A682BF014E2DCE0142
:101F40000E94800E882309F4EFCECE010E94100675
:101F5000882309F4E9CE6DE7CE010E94FF058111C7
:101F600020C06CE2CE010E94FF05882309F458CFFF
:101F7000CE010E94100681112FCFD6CE1C866D2D6A
:101F8000CE010E943606CE010E94B705D82E0E94CF
:101F90009F058111F3CFE881F9818085811171CF8F
:101FA0009ACFF82EC1CEE881F981828193819B83FB
:101FB0008A838481958122813381821B930B9F8345
:101FC0008E831D821C82892B11F481E08087CE01D3
:101FD0000E945006F82E882309F4A5CECC80DD801F
:101FE000B601888199810E945409F80124812078E2
:101FF0002560248391838083D382C28295CEFE01A3
:10200000EF0DF11D17868F85843781F4F8018481E7
:1020100080788660848381E08083F4E0FF1609F491
:1020200027CFC15BDF4F82E090E010CF863641F4CE
:10203000F80184818078866084831082F5E0EECF99
:102040008E3621F484E0F812ECCF12CFB801892D3E
:102050009C2D0E943E07882309F432CF09CFEF92CE
:10206000FF920F931F93CF93DF93EC018C81982FF6
:102070009F7739F4807880628C83198218821B8262
:102080001A828C8185FF1DC061157105D1F07A011E
:102090008B01CE010E945F0E009761F4B701CE0163
:1020A0000E941F09009731F0FC0124812F772483BF
:1020B00017830683DF91CF911F910F91FF90EF90CF
:1020C000089590E080E0F6CFCF92DF92EF92FF92FA
:1020D0000F931F93CF93DF93CDB7DEB7C650D24097
:1020E0000FB6F894DEBF0FBECDBFCE010F969A8318
:1020F00089839C838B838E010D5F1D4F1E830D830F
:1021000018870F8319861E860E940B026B017C01C3
:10211000AE014F5F5F4F6CE472E0CE010A960E9401
:102120002F10FC01892B41F0948190789860948362
:10213000C082D182E282F382AE014F5F5F4F61E5E0
:1021400072E0CE010A960E942F10FC01892B81F0CB
:102150002091C6023091C702948190789A6094834E
:10216000C901330FAA0BBB0B80839183A283B38376
:1021700083ED92E0F8019183808313821282B8018B
:10218000CE010A960E94D6098CE592E00E949F0932
:102190001092C802CA5FDD4F0FB6F894DEBF0FBEC3
:1021A000CDBFDF91CF911F910F91FF90EF90DF9006
:1021B000CF900895FC01248125FD0C945F0E90E0E2
:1021C00080E008950F931F93CF93DF93CDB7DEB7D1
:1021D000C95FD2400FB6F894DEBF0FBECDBFCE01AF
:1021E0000F969A8389839C838B8383E092E08C0F84
:1021F0009D1F9E838D8398878F8319861E868250AC
:102200009240C451DD4F99838883CC5ED24028E050
:10221000FE01E451FD4FDE01AC51BD4F01900D9226
:102220002A95E1F728E0FE01EC51FD4FDE01AD5F9C
:10223000BD4F01900D922A95E1F7C55FDD4F1882E1
:10224000CB50D24023ED32E0C45FDD4F3983288389
:10225000CC50D240C15FDD4F1882CF50D240C05F1A
:10226000DD4F99838883C051D240CE5ADD4F198209
:102270001882C255D2404AE0BE01665F7F4F8E5F32
:102280009D4F0E94800ECE5ADD4F08811981C255A4
:10229000D2400115110561F5C25FDD4F8881CE5036
:1022A000D240882329F18E8583FF22C01092C90273
:1022B00003E010E08BE692E00E949F09000F111FDF
:1022C000F801EA5FFD4F80819181009709F01EC1FE
:1022D0008CE592E00E949F09C750DD4F0FB6F8943D
:1022E000DEBF0FBECDBFDF91CF911F910F9108953B
:1022F0001092C90201151105E9F66FE572E0CE01F1
:102300000A960E94DA10009709F09DC062E872E018
:10231000CE010A960E94DA100097F1F2FC01848146
:102320008F77D1F262E872E0CE010A960E94DA104D
:102330008C01CC50DD4F19821882C45FD240CA5044
:10234000DD4F19821882C65FD240C850DD4F198216
:102350001882C85FD24050E040E064E372E0CE01F2
:102360008C509D4F0E94850B0115110509F405C184
:10237000F80184818F77843009F4CBC0853009F46B
:10238000C8C084EF92E08C0F9D1FC054DD4F99832D
:102390008883C05CD240CE51DD4F19821882C25E64
:1023A000D24084E2FE01E054FD4FDE01A456BD4F51
:1023B00001900D928A95E1F784E2FE01E456FD4F0B
:1023C000DE01A858BD4F01900D928A95E1F784E295
:1023D000FE01E858FD4FDE01AC5ABD4F01900D9251
:1023E0008A95E1F784E2FE01EC5AFD4FDE01AD5F14
:1023F000BD4F01900D928A95E1F7C95DDD4F1982BD
:102400001882C752D240CE018C5A9D4F0E94B00B09
:10241000CE0188589D4F0E94B00BBE016D5F7D4F6D
:10242000C8010E94D80CCE018D5F9D4F0E94B00B59
:10243000CE0184569D4F0E94B00BCE0180549D4F1B
:102440000E94B00B7AC0FC0184818F7709F45ECFC3
:102450006FE572E0CE010A960E94DA1010E000E00B
:10246000009719F00E94AF088C0181E00E9483015F
:1024700081E090E09093C7028093C60228EE33E09B
:10248000029FC001039F900D129F900D1124092EF1
:10249000000CAA0BBB0B8093720390937303A09361
:1024A0007403B09375038091700390917103892B2D
:1024B00009F42CCF81E080937A030E940B020091F3
:1024C0007203109173032091740330917503DC0142
:1024D000CB01800F911FA21FB31F809376039093AF
:1024E0007703A0937803B093790380917B03909155
:1024F0007C03A0917D03B0917E0380937F03909332
:102500008003A0938103B093820300CF0E949F09B0
:10251000DFCEF801608171816115710509F431CF59
:10252000FB0101900020E9F73197AF01461B570BE3
:10253000CE018C509D4F0E94850BC850DD4F4881C5
:102540005981C85FD240CC50DD4F68817981C45F2A
:10255000D24083ED92E00E9425028CE592E00E9439
:102560009F09CC50DD4F88819981C45FD24000978C
:1025700009F4B2CE0E94EF17AFCEE4EFF2E0EC0F19
:10258000FD1FC054DD4FF983E883C05CD240CE51BB
:10259000DD4F19821882C25ED24084E2FE01E0540F
:1025A000FD4FDE01A456BD4F01900D928A95E1F7D3
:1025B00084E2FE01E456FD4FDE01A858BD4F0190B4
:1025C0000D928A95E1F784E2FE01E858FD4FDE01A5
:1025D000AC5ABD4F01900D928A95E1F784E2FE015D
:1025E000EC5AFD4FDE01AD5FBD4F01900D928A9513
:1025F000E1F7C95DDD4F19821882C752D240CE0182
:102600008C5A9D4F0E94B00BCE0188589D4F0E945E
:10261000B00B6CE372E0CE018D5F9D4F0E94AE0C5B
:1026200002CF1F920F920FB60F9211242F933F9358
:102630008F939F93AF93BF938091CF029091D002DD
:10264000A091D102B091D2023091CE0223E0230FAB
:102650002D3758F50196A11DB11D2093CE02809310
:10266000CF029093D002A093D102B093D202809176
:10267000CA029091CB02A091CC02B091CD020196FA
:10268000A11DB11D8093CA029093CB02A093CC02EE
:10269000B093CD02BF91AF919F918F913F912F91B8
:1026A0000F900FBE0F901F90189526E8230F0296EB
:1026B000A11DB11DD2CF1F920F920FB60F92112400
:1026C0000BB60F922F933F934F935F936F937F932C
:1026D0008F939F93AF93BF93EF93FF9383ED92E01C
:1026E0000E949902FF91EF91BF91AF919F918F91BD
:1026F0007F916F915F914F913F912F910F900BBE02
:102700000F900FBE0F901F9018951F920F920FB64B
:102710000F9211240BB60F922F938F939F93EF93E9
:10272000FF93E091E302F091E4028081E091E902FD
:10273000F091EA0282FD1DC090818091EC028F5FD2
:102740008F732091ED02821741F0E091EC02F0E0EE
:10275000ED52FD4F958F8093EC02FF91EF919F9189
:102760008F912F910F900BBE0F900FBE0F901F9067
:1027700018958081F2CFE3EDF2E01382128288EEA9
:1027800093E0A0E0B0E084839583A683B78386E1DD
:1027900092E09183808385EC90E09587848784EC38
:1027A00090E09787868780EC90E0918B808B81EC1E
:1027B00090E0938B828B82EC90E0958B848B86ECFF
:1027C00090E0978B868B118E128E138E148EE3E819
:1027D000F3E0128213821482158216821782108609
:1027E00011868FEF9FEFDC0183879487A587B687DB
:1027F0008787908BA18BB28B128611821082E0E7C3
:10280000F3E01282138214821582168217821086D8
:10281000118683879487A587B6878787908BA18B3E
:10282000B28B1286118210820895789484B58260EA
:1028300084BD84B5816084BD85B5826085BD85B564
:10284000816085BD80916E00816080936E001092E2
:10285000810080918100826080938100809181005D
:1028600081608093810080918000816080938000EE
:102870008091B10084608093B1008091B00081604C
:102880008093B0008091910082608093910080914C
:10289000910081608093910080919000816080938D
:1028A00090008091A10082608093A1008091A1009E
:1028B00081608093A1008091A00081608093A0003E
:1028C00080912101826080932101809121018160AA
:1028D000809321018091200181608093200180916B
:1028E0007A00846080937A0080917A00826080937D
:1028F0007A0080917A00816080937A0080917A00DA
:10290000806880937A001092C100E091E302F09118
:10291000E40282E08083E091DF02F091E002108225
:10292000E091E102F091E20280E180831092EB02FB
:10293000E091E702F091E80286E08083E091E50211
:10294000F091E602808180618083E091E502F09160
:10295000E602808188608083E091E502F091E602E2
:10296000808180688083E091E502F091E6028081B9
:102970008F7D808384E690E0A0E0B0E080938503C3
:1029800090938603A0938703B093880387E192E036
:10299000909384038093830381E080938D030E944E
:1029A0000B020091850310918603209187033091DB
:1029B0008803DC01CB01800F911FA21FB31F8093FE
:1029C000890390938A03A0938B03B0938C03809127
:1029D0008E0390918F03A0919003B0919103809307
:1029E000920390939303A0939403B09395038BE188
:1029F00092E0909371038093700310927A03EFE159
:102A0000F2E02491E9EDF1E08491882399F090E0DF
:102A1000880F991FFC01E856FE4FA591B491FC0167
:102A2000EE54FE4F859194918FB7F894EC91E22B80
:102A3000EC938FBF8091C90281110E94E2108091B6
:102A4000C80281110E94641083E893E00E945B0336
:102A500080E793E00E945B030E942C03EBCF0E946F
:102A6000711508F481E00895E89409C097FB3EF4DD
:102A700090958095709561957F4F8F4F9F4F9923CB
:102A8000A9F0F92F96E9BB279395F6958795779549
:102A90006795B795F111F8CFFAF4BB0F11F460FF09
:102AA0001BC06F5F7F4F8F4F9F4F16C0882311F061
:102AB00096E911C0772321F09EE8872F762F05C075
:102AC000662371F096E8862F70E060E02AF09A9510
:102AD000660F771F881FDAF7880F9695879597F905
:102AE0000895990F0008550FAA0BE0E8FEEF16169F
:102AF0001706E807F907C0F012161306E407F507F2
:102B000098F0621B730B840B950B39F40A2661F065
:102B1000232B242B252B21F408950A2609F4A14008
:102B2000A6958FEF811D811D08950E94A8150C9414
:102B300019160E940B1638F00E94121620F09523E9
:102B400011F00C9402160C94081611240C944D16D6
:102B50000E942A1670F3959FC1F3950F50E0551F00
:102B6000629FF001729FBB27F00DB11D639FAA27E2
:102B7000F00DB11DAA1F649F6627B00DA11D661F31
:102B8000829F2227B00DA11D621F739FB00DA11D52
:102B9000621F839FA00D611D221F749F3327A00D0C
:102BA000611D231F849F600D211D822F762F6A2FA8
:102BB00011249F5750409AF0F1F088234AF0EE0F0D
:102BC000FF1FBB1F661F771F881F91505040A9F73A
:102BD0009E3F510580F00C9402160C944D165F3FF9
:102BE000E4F3983ED4F3869577956795B795F79576
:102BF000E7959F5FC1F7FE2B880F911D96958795EE
:102C000097F9089597F99F6780E870E060E008956C
:102C10009FEF80EC089500240A94161617061806F4
:102C20000906089500240A941216130614060506D0
:102C30000895092E0394000C11F4882352F0BB0F61
:102C400040F4BF2B11F460FF04C06F5F7F4F8F4FC4
:102C50009F4F089557FD9058440F551F59F05F3FFF
:102C600071F04795880F97FB991F61F09F3F79F0AE
:102C700087950895121613061406551FF2CF469530
:102C8000F1DF08C0161617061806991FF1CF8695B2
:102C90007105610508940895E894BB276627772796
:102CA000CB0197F908950E945E16A59F900DB49FE1
:102CB000900DA49F800D911D11240895A29FB00135
:102CC000B39FC001A39F700D811D1124911DB29F60
:102CD000700D811D1124911D0895AA1BBB1B51E18C
:102CE00007C0AA1FBB1FA617B70710F0A61BB70B7C
:102CF000881F991F5A95A9F780959095BC01CD0121
:102D00000895A1E21A2EAA1BBB1BFD010DC0AA1F2C
:102D1000BB1FEE1FFF1FA217B307E407F50720F044
:102D2000A21BB30BE40BF50B661F771F881F991FBF
:102D30001A9469F760957095809590959B01AC0108
:102D4000BD01CF010895EE0FFF1F881F8BBF0790B5
:102D5000F691E02D19945058BB27AA270E94C3165C
:102D60000C9419160E940B1638F00E94121620F0CF
:102D700039F49F3F19F426F40C9408160EF4E095EC
:102D8000E7FB0C940216E92F0E942A1658F3BA1793
:102D9000620773078407950720F079F4A6F50C9471
:102DA0004C160EF4E0950B2EBA2FA02D0B01B90195
:102DB00090010C01CA01A0011124FF27591B99F0B1
:102DC000593F50F4503E68F11A16F040A22F232FBD
:102DD000342F4427585FF3CF469537952795A7950D
:102DE000F0405395C9F77EF41F16BA0B620B730BB4
:102DF000840BBAF09150A1F0FF0FBB1F661F771F25
:102E0000881FC2F70EC0BA0F621F731F841F48F4D9
:102E1000879577956795B795F7959E3F08F0B0CF62
:102E20009395880F08F09927EE0F97958795089549
:102E30000E941F176894B1110C944D1608950E94BA
:102E4000321688F09F5798F0B92F9927B751B0F0F4
:102E5000E1F0660F771F881F991F1AF0BA95C9F71E
:102E600014C0B13091F00E944C16B1E008950C945A
:102E70004C16672F782F8827B85F39F0B93FCCF30D
:102E8000869577956795B395D9F73EF4909580959B
:102E9000709561957F4F8F4F9F4F08950E947115D8
:102EA00008F48FEF08950F931F93CF93DF93823031
:102EB000910510F482E090E0E0919803F09199037D
:102EC00030E020E0B0E0A0E0309799F42115310522
:102ED00009F44AC0281B390B24303105D8F58A8102
:102EE0009B816115710589F1FB0193838283FE014A
:102EF00011C0408151810281138148175907E0F0C8
:102F00004817590799F4109761F012960C9312978D
:102F100013961C933296CF01DF91CF911F910F91A1
:102F200008950093980310939903F4CF2115310568
:102F300051F04217530738F0A901DB019A01BD0196
:102F4000DF01F801C1CFEF01F9CF9093990380938E
:102F50009803CDCFFE01E20FF31F8193919322508E
:102F6000310939832883D7CF209196033091970375
:102F7000232B41F4209102023091030230939703F6
:102F80002093960320910002309101022115310512
:102F900041F42DB73EB74091040250910502241B25
:102FA000350BE0919603F0919703E217F307A0F435
:102FB0002E1B3F0B2817390778F0AC014E5F5F4F8F
:102FC0002417350748F04E0F5F1F50939703409327
:102FD0009603819391939FCFF0E0E0E09CCFCF9355
:102FE000DF930097E9F0FC01329713821282A091DF
:102FF0009803B0919903ED0130E020E01097A1F41F
:1030000020813181820F931F209196033091970385
:103010002817390709F061C0F0939703E0939603EE
:10302000DF91CF910895EA01CE17DF07E8F54A81D5
:103030005B819E0141155105B1F7E901FB83EA83EC
:1030400049915991C40FD51FEC17FD0761F4808198
:1030500091810296840F951FE9019983888382816B
:1030600093819B838A83F0E0E0E012968D919C919E
:1030700013970097B9F52D913C911197CD010296C8
:10308000820F931F209196033091970328173907D9
:1030900039F6309751F51092990310929803B09336
:1030A0009703A0939603BCCFD383C2834081518101
:1030B000840F951FC817D90761F44E5F5F4F888151
:1030C0009981480F591F518340838A819B81938343
:1030D00082832115310509F0B0CFF0939903E09375
:1030E00098039ECFFD01DC01C0CF13821282D7CF9F
:1030F0004F925F926F927F928F929F92AF92BF9208
:10310000CF92DF92EF92FF920F931F93CF93DF93B3
:103110008C01009799F4CB01DF91CF911F910F9112
:10312000FF90EF90DF90CF90BF90AF909F908F90E7
:103130007F906F905F904F900C945317FC01E60FB7
:10314000F71F9C0122503109E217F30708F4AEC0C3
:10315000D901CD91DC911197C617D70720F1C53061
:10316000D10578F0CE0104978617970750F0C61B5B
:10317000D70B2297C193D1936D937C93CF010E947B
:10318000EF17C801DF91CF911F910F91FF90EF9042
:10319000DF90CF90BF90AF909F908F907F906F9077
:1031A0005F904F9008955B01AC1ABD0A4C018C0EE4
:1031B0009D1EA0919803B0919903512C412CF12CA4
:1031C000E12C109731F58091960390919703881523
:1031D000990509F05CC04616570608F058C0809162
:1031E000000290910102009741F48DB79EB7409183
:1031F000040250910502841B950BE817F90708F0AB
:1032000055C0F0939703E0939603F90171836083AF
:10321000B8CF8D919C91119712966C90129713963E
:103220007C901397A815B90559F56C0142E0C40EBE
:10323000D11CCA14DB0420F1AC014A195B09DA0184
:103240001296159780F06282738251834083D90170
:103250006D937C93E114F10471F0D7011396FC9304
:10326000EE9312978ECF22968C0F9D1FF9019183BA
:103270008083F301EFCFF0939903E093980381CF1C
:103280004816590608F42C017D01D3019ACFCB01D1
:103290000E9453177C01009749F0AE01B8010E94CB
:1032A0005919C8010E94EF1787016BCF10E000E0A9
:1032B00068CFFB01DC0102C001900D9241505040EB
:1032C000D8F70895FB01DC018D9101908019011060
:1032D000D9F3990B0895FB01DC0101900D920020B8
:0832E000E1F70895F894FFCF17
:1032E80000009A0380008A028D029802A802B502A3
:1032F800BE0200000000BB0225025202080383023E
:10330800610275022F2F22225C5C6208660C6E0A2D
:10331800720D7409005C7530303030006E756C6C5D
:1033280000747275650066616C73650074696D651B
:10333800006C696768745374617465000D0A0074E1
:1033480075726E4F6E4C6967687400646573657258
:1033580069616C697A652829206661696C65643AD7
:103368002000757365724D7367004F6B00456D7073
:103378007479496E70757400496E636F6D706C6511
:103388007465496E70757400496E76616C6964493C
:103398006E707574004E6F4D656D6F727900546F65
:0633A8006F446565700032
:00000001FF
